{
  "contractName": "App",
  "abi": [
    {
      "inputs": [
        {
          "internalType": "address",
          "name": "",
          "type": "address"
        }
      ],
      "name": "user",
      "outputs": [
        {
          "internalType": "string",
          "name": "",
          "type": "string"
        }
      ],
      "stateMutability": "view",
      "type": "function",
      "constant": true
    },
    {
      "inputs": [
        {
          "internalType": "address",
          "name": "",
          "type": "address"
        },
        {
          "internalType": "uint256",
          "name": "",
          "type": "uint256"
        }
      ],
      "name": "userRooms",
      "outputs": [
        {
          "internalType": "address",
          "name": "",
          "type": "address"
        }
      ],
      "stateMutability": "view",
      "type": "function",
      "constant": true
    },
    {
      "inputs": [
        {
          "internalType": "address",
          "name": "_user",
          "type": "address"
        },
        {
          "internalType": "string",
          "name": "_name",
          "type": "string"
        }
      ],
      "name": "createRoom",
      "outputs": [],
      "stateMutability": "nonpayable",
      "type": "function"
    },
    {
      "inputs": [
        {
          "internalType": "address",
          "name": "_user",
          "type": "address"
        }
      ],
      "name": "getNumberOfRooms",
      "outputs": [
        {
          "internalType": "uint256",
          "name": "",
          "type": "uint256"
        }
      ],
      "stateMutability": "view",
      "type": "function",
      "constant": true
    },
    {
      "inputs": [
        {
          "internalType": "address",
          "name": "_user",
          "type": "address"
        },
        {
          "internalType": "address",
          "name": "_room",
          "type": "address"
        }
      ],
      "name": "addUserRoom",
      "outputs": [],
      "stateMutability": "nonpayable",
      "type": "function"
    }
  ],
  "bytecode": "0x608060405234801561001057600080fd5b506119ab806100206000396000f3fe60806040523480156200001157600080fd5b50600436106200005e5760003560e01c806327b612d114620000635780632d9b9c4d146200009957806381e7e20e14620000b9578063bdbb85d414620000ef578063ebfabc34146200010f575b600080fd5b6200008160048036038101906200007b9190620004d0565b62000145565b60405162000090919062000528565b60405180910390f35b620000b76004803603810190620000b1919062000545565b62000194565b005b620000d76004803603810190620000d191906200058c565b62000238565b604051620000e6919062000658565b60405180910390f35b6200010d6004803603810190620001079190620007cd565b620002e0565b005b6200012d60048036038101906200012791906200058c565b620003c2565b6040516200013c919062000844565b60405180910390f35b600160205281600052604060002081815481106200016257600080fd5b906000526020600020016000915091509054906101000a900473ffffffffffffffffffffffffffffffffffffffff1681565b600160008373ffffffffffffffffffffffffffffffffffffffff1673ffffffffffffffffffffffffffffffffffffffff168152602001908152602001600020819080600181540180825580915050600190039060005260206000200160009091909190916101000a81548173ffffffffffffffffffffffffffffffffffffffff021916908373ffffffffffffffffffffffffffffffffffffffff1602179055505050565b60006020528060005260406000206000915090508054620002599062000890565b80601f0160208091040260200160405190810160405280929190818152602001828054620002879062000890565b8015620002d85780601f10620002ac57610100808354040283529160200191620002d8565b820191906000526020600020905b815481529060010190602001808311620002ba57829003601f168201915b505050505081565b600081604051620002f1906200040e565b620002fd919062000658565b604051809103906000f0801580156200031a573d6000803e3d6000fd5b509050600160008473ffffffffffffffffffffffffffffffffffffffff1673ffffffffffffffffffffffffffffffffffffffff168152602001908152602001600020819080600181540180825580915050600190039060005260206000200160009091909190916101000a81548173ffffffffffffffffffffffffffffffffffffffff021916908373ffffffffffffffffffffffffffffffffffffffff160217905550505050565b6000600160008373ffffffffffffffffffffffffffffffffffffffff1673ffffffffffffffffffffffffffffffffffffffff168152602001908152602001600020805490509050919050565b6110b080620008c683390190565b6000604051905090565b600080fd5b600080fd5b600073ffffffffffffffffffffffffffffffffffffffff82169050919050565b60006200045d8262000430565b9050919050565b6200046f8162000450565b81146200047b57600080fd5b50565b6000813590506200048f8162000464565b92915050565b6000819050919050565b620004aa8162000495565b8114620004b657600080fd5b50565b600081359050620004ca816200049f565b92915050565b60008060408385031215620004ea57620004e962000426565b5b6000620004fa858286016200047e565b92505060206200050d85828601620004b9565b9150509250929050565b620005228162000450565b82525050565b60006020820190506200053f600083018462000517565b92915050565b600080604083850312156200055f576200055e62000426565b5b60006200056f858286016200047e565b925050602062000582858286016200047e565b9150509250929050565b600060208284031215620005a557620005a462000426565b5b6000620005b5848285016200047e565b91505092915050565b600081519050919050565b600082825260208201905092915050565b60005b83811015620005fa578082015181840152602081019050620005dd565b60008484015250505050565b6000601f19601f8301169050919050565b60006200062482620005be565b620006308185620005c9565b935062000642818560208601620005da565b6200064d8162000606565b840191505092915050565b6000602082019050818103600083015262000674818462000617565b905092915050565b600080fd5b600080fd5b7f4e487b7100000000000000000000000000000000000000000000000000000000600052604160045260246000fd5b620006c08262000606565b810181811067ffffffffffffffff82111715620006e257620006e162000686565b5b80604052505050565b6000620006f76200041c565b9050620007058282620006b5565b919050565b600067ffffffffffffffff82111562000728576200072762000686565b5b620007338262000606565b9050602081019050919050565b82818337600083830152505050565b60006200076662000760846200070a565b620006eb565b90508281526020810184848401111562000785576200078462000681565b5b6200079284828562000740565b509392505050565b600082601f830112620007b257620007b16200067c565b5b8135620007c48482602086016200074f565b91505092915050565b60008060408385031215620007e757620007e662000426565b5b6000620007f7858286016200047e565b925050602083013567ffffffffffffffff8111156200081b576200081a6200042b565b5b62000829858286016200079a565b9150509250929050565b6200083e8162000495565b82525050565b60006020820190506200085b600083018462000833565b92915050565b7f4e487b7100000000000000000000000000000000000000000000000000000000600052602260045260246000fd5b60006002820490506001821680620008a957607f821691505b602082108103620008bf57620008be62000861565b5b5091905056fe60806040523480156200001157600080fd5b50604051620010b0380380620010b08339818101604052810190620000379190620001e3565b80600090816200004891906200047f565b505062000566565b6000604051905090565b600080fd5b600080fd5b600080fd5b600080fd5b6000601f19601f8301169050919050565b7f4e487b7100000000000000000000000000000000000000000000000000000000600052604160045260246000fd5b620000b9826200006e565b810181811067ffffffffffffffff82111715620000db57620000da6200007f565b5b80604052505050565b6000620000f062000050565b9050620000fe8282620000ae565b919050565b600067ffffffffffffffff8211156200012157620001206200007f565b5b6200012c826200006e565b9050602081019050919050565b60005b83811015620001595780820151818401526020810190506200013c565b60008484015250505050565b60006200017c620001768462000103565b620000e4565b9050828152602081018484840111156200019b576200019a62000069565b5b620001a884828562000139565b509392505050565b600082601f830112620001c857620001c762000064565b5b8151620001da84826020860162000165565b91505092915050565b600060208284031215620001fc57620001fb6200005a565b5b600082015167ffffffffffffffff8111156200021d576200021c6200005f565b5b6200022b84828501620001b0565b91505092915050565b600081519050919050565b7f4e487b7100000000000000000000000000000000000000000000000000000000600052602260045260246000fd5b600060028204905060018216806200028757607f821691505b6020821081036200029d576200029c6200023f565b5b50919050565b60008190508160005260206000209050919050565b60006020601f8301049050919050565b600082821b905092915050565b600060088302620003077fffffffffffffffffffffffffffffffffffffffffffffffffffffffffffffffff82620002c8565b620003138683620002c8565b95508019841693508086168417925050509392505050565b6000819050919050565b6000819050919050565b6000620003606200035a62000354846200032b565b62000335565b6200032b565b9050919050565b6000819050919050565b6200037c836200033f565b620003946200038b8262000367565b848454620002d5565b825550505050565b600090565b620003ab6200039c565b620003b881848462000371565b505050565b5b81811015620003e057620003d4600082620003a1565b600181019050620003be565b5050565b601f8211156200042f57620003f981620002a3565b6200040484620002b8565b8101602085101562000414578190505b6200042c6200042385620002b8565b830182620003bd565b50505b505050565b600082821c905092915050565b6000620004546000198460080262000434565b1980831691505092915050565b60006200046f838362000441565b9150826002028217905092915050565b6200048a8262000234565b67ffffffffffffffff811115620004a657620004a56200007f565b5b620004b282546200026e565b620004bf828285620003e4565b600060209050601f831160018114620004f75760008415620004e2578287015190505b620004ee858262000461565b8655506200055e565b601f1984166200050786620002a3565b60005b8281101562000531578489015182556001820191506020850194506020810190506200050a565b868310156200055157848901516200054d601f89168262000441565b8355505b6001600288020188555050505b505050505050565b610b3a80620005766000396000f3fe608060405234801561001057600080fd5b506004361061007d5760003560e01c80635daf08ca1161005b5780635daf08ca146100ef5780638b73a46b1461011f578063ca6d56dc1461013d578063de6f24bb146101595761007d565b806306fdde03146100825780630d80fefd146100a057806345e63f22146100d1575b600080fd5b61008a610175565b60405161009791906104ed565b60405180910390f35b6100ba60048036038101906100b59190610559565b610203565b6040516100c89291906105c7565b60405180910390f35b6100d96102df565b6040516100e69190610606565b60405180910390f35b61010960048036038101906101049190610559565b6102ec565b6040516101169190610621565b60405180910390f35b61012761032b565b6040516101349190610606565b60405180910390f35b61015760048036038101906101529190610668565b610338565b005b610173600480360381019061016e91906107ca565b61039e565b005b6000805461018290610855565b80601f01602080910402602001604051908101604052809291908181526020018280546101ae90610855565b80156101fb5780601f106101d0576101008083540402835291602001916101fb565b820191906000526020600020905b8154815290600101906020018083116101de57829003601f168201915b505050505081565b6002818154811061021357600080fd5b90600052602060002090600202016000915090508060000160009054906101000a900473ffffffffffffffffffffffffffffffffffffffff169080600101805461025c90610855565b80601f016020809104026020016040519081016040528092919081815260200182805461028890610855565b80156102d55780601f106102aa576101008083540402835291602001916102d5565b820191906000526020600020905b8154815290600101906020018083116102b857829003601f168201915b5050505050905082565b6000600280549050905090565b600181815481106102fc57600080fd5b906000526020600020016000915054906101000a900473ffffffffffffffffffffffffffffffffffffffff1681565b6000600180549050905090565b6001819080600181540180825580915050600190039060005260206000200160009091909190916101000a81548173ffffffffffffffffffffffffffffffffffffffff021916908373ffffffffffffffffffffffffffffffffffffffff16021790555050565b600060405180604001604052808473ffffffffffffffffffffffffffffffffffffffff168152602001838152509050600281908060018154018082558091505060019003906000526020600020906002020160009091909190915060008201518160000160006101000a81548173ffffffffffffffffffffffffffffffffffffffff021916908373ffffffffffffffffffffffffffffffffffffffff16021790555060208201518160010190816104559190610a32565b505050505050565b600081519050919050565b600082825260208201905092915050565b60005b8381101561049757808201518184015260208101905061047c565b60008484015250505050565b6000601f19601f8301169050919050565b60006104bf8261045d565b6104c98185610468565b93506104d9818560208601610479565b6104e2816104a3565b840191505092915050565b6000602082019050818103600083015261050781846104b4565b905092915050565b6000604051905090565b600080fd5b600080fd5b6000819050919050565b61053681610523565b811461054157600080fd5b50565b6000813590506105538161052d565b92915050565b60006020828403121561056f5761056e610519565b5b600061057d84828501610544565b91505092915050565b600073ffffffffffffffffffffffffffffffffffffffff82169050919050565b60006105b182610586565b9050919050565b6105c1816105a6565b82525050565b60006040820190506105dc60008301856105b8565b81810360208301526105ee81846104b4565b90509392505050565b61060081610523565b82525050565b600060208201905061061b60008301846105f7565b92915050565b600060208201905061063660008301846105b8565b92915050565b610645816105a6565b811461065057600080fd5b50565b6000813590506106628161063c565b92915050565b60006020828403121561067e5761067d610519565b5b600061068c84828501610653565b91505092915050565b600080fd5b600080fd5b7f4e487b7100000000000000000000000000000000000000000000000000000000600052604160045260246000fd5b6106d7826104a3565b810181811067ffffffffffffffff821117156106f6576106f561069f565b5b80604052505050565b600061070961050f565b905061071582826106ce565b919050565b600067ffffffffffffffff8211156107355761073461069f565b5b61073e826104a3565b9050602081019050919050565b82818337600083830152505050565b600061076d6107688461071a565b6106ff565b9050828152602081018484840111156107895761078861069a565b5b61079484828561074b565b509392505050565b600082601f8301126107b1576107b0610695565b5b81356107c184826020860161075a565b91505092915050565b600080604083850312156107e1576107e0610519565b5b60006107ef85828601610653565b925050602083013567ffffffffffffffff8111156108105761080f61051e565b5b61081c8582860161079c565b9150509250929050565b7f4e487b7100000000000000000000000000000000000000000000000000000000600052602260045260246000fd5b6000600282049050600182168061086d57607f821691505b6020821081036108805761087f610826565b5b50919050565b60008190508160005260206000209050919050565b60006020601f8301049050919050565b600082821b905092915050565b6000600883026108e87fffffffffffffffffffffffffffffffffffffffffffffffffffffffffffffffff826108ab565b6108f286836108ab565b95508019841693508086168417925050509392505050565b6000819050919050565b600061092f61092a61092584610523565b61090a565b610523565b9050919050565b6000819050919050565b61094983610914565b61095d61095582610936565b8484546108b8565b825550505050565b600090565b610972610965565b61097d818484610940565b505050565b5b818110156109a15761099660008261096a565b600181019050610983565b5050565b601f8211156109e6576109b781610886565b6109c08461089b565b810160208510156109cf578190505b6109e36109db8561089b565b830182610982565b50505b505050565b600082821c905092915050565b6000610a09600019846008026109eb565b1980831691505092915050565b6000610a2283836109f8565b9150826002028217905092915050565b610a3b8261045d565b67ffffffffffffffff811115610a5457610a5361069f565b5b610a5e8254610855565b610a698282856109a5565b600060209050601f831160018114610a9c5760008415610a8a578287015190505b610a948582610a16565b865550610afc565b601f198416610aaa86610886565b60005b82811015610ad257848901518255600182019150602085019450602081019050610aad565b86831015610aef5784890151610aeb601f8916826109f8565b8355505b6001600288020188555050505b50505050505056fea264697066735822122094e72ae2dcb85895285a79a8e512746140030a1643ab66e025ceaead9876721264736f6c63430008130033a2646970667358221220c1890852334f60787425e3602b7e930099cc1d49c00410a9e6a6dedb474ccb7064736f6c63430008130033",
  "immutableReferences": {},
  "source": "// SPDX-License-Identifier: MIT\r\n\r\npragma solidity ^0.8.0;\r\n\r\ncontract Room{\r\n    string public name;\r\n    address[] public members;\r\n\r\n    constructor(string memory _name){\r\n        name = _name;\r\n    }\r\n\r\n    struct Message{\r\n        address sender;\r\n        string message;\r\n    }\r\n\r\n    Message[] public messages;\r\n\r\n    function getNumberOfMessages() public view returns(uint){\r\n        return messages.length;\r\n    }\r\n\r\n    function getNumberOfMembers() public view returns(uint){\r\n        return members.length;\r\n    }\r\n\r\n\r\n    function addMember(address _newMember) external{\r\n        members.push(_newMember);\r\n    }\r\n\r\n    function sendMessage(address _sender, string memory _message) external{\r\n        Message memory message = Message(_sender,_message);\r\n        messages.push(message);\r\n    }\r\n\r\n}\r\n\r\ncontract App{\r\n    mapping (address=>string) public user;\r\n    mapping(address=>address[])public userRooms;\r\n\r\n\r\n    function createRoom(address _user,string memory _name) external{\r\n        Room room = new Room(_name);\r\n        userRooms[_user].push(address(room));\r\n    }\r\n\r\n    function getNumberOfRooms(address _user) public view returns(uint){\r\n        return userRooms[_user].length;\r\n    }\r\n\r\n    function addUserRoom(address _user,address _room) public {\r\n        userRooms[_user].push(_room);\r\n    }\r\n\r\n}",
  "sourcePath": "C:\\Users\\laksh\\Desktop\\Sandesha Github\\Sandesha\\contracts\\App.sol",
  "compiler": {
    "name": "solc",
    "version": "0.8.19+commit.7dd6d404.Emscripten.clang"
  },
  "schemaVersion": "3.4.13",
  "updatedAt": "2023-04-23T10:45:52.734Z",
  "networkType": "ethereum",
  "devdoc": {
    "kind": "dev",
    "methods": {},
    "version": 1
  },
  "userdoc": {
    "kind": "user",
    "methods": {},
    "version": 1
  }
}